{
  "contractName": "Exchange",
  "abi": [
    {
      "inputs": [],
      "payable": false,
      "stateMutability": "nonpayable",
      "type": "constructor"
    },
    {
      "anonymous": false,
      "inputs": [
        {
          "indexed": false,
          "internalType": "uint256",
          "name": "tokenIndex",
          "type": "uint256"
        },
        {
          "indexed": false,
          "internalType": "string",
          "name": "symbolName",
          "type": "string"
        },
        {
          "indexed": false,
          "internalType": "address",
          "name": "EC20TokenAddress",
          "type": "address"
        },
        {
          "indexed": false,
          "internalType": "uint256",
          "name": "timestamp",
          "type": "uint256"
        }
      ],
      "name": "LogAddToken",
      "type": "event"
    },
    {
      "anonymous": false,
      "inputs": [
        {
          "indexed": false,
          "internalType": "string",
          "name": "symbolName",
          "type": "string"
        },
        {
          "indexed": false,
          "internalType": "uint256",
          "name": "priceInWei",
          "type": "uint256"
        },
        {
          "indexed": false,
          "internalType": "uint256",
          "name": "amount",
          "type": "uint256"
        },
        {
          "indexed": false,
          "internalType": "address",
          "name": "buyer",
          "type": "address"
        },
        {
          "indexed": false,
          "internalType": "uint256",
          "name": "timestamp",
          "type": "uint256"
        }
      ],
      "name": "LogBuyToken",
      "type": "event"
    },
    {
      "anonymous": false,
      "inputs": [
        {
          "indexed": false,
          "internalType": "string",
          "name": "symbolName",
          "type": "string"
        },
        {
          "indexed": false,
          "internalType": "uint256",
          "name": "orderIndex",
          "type": "uint256"
        },
        {
          "indexed": false,
          "internalType": "address",
          "name": "buyer",
          "type": "address"
        },
        {
          "indexed": false,
          "internalType": "uint256",
          "name": "timestamp",
          "type": "uint256"
        }
      ],
      "name": "LogCancelBuyOrder",
      "type": "event"
    },
    {
      "anonymous": false,
      "inputs": [
        {
          "indexed": false,
          "internalType": "string",
          "name": "symbolName",
          "type": "string"
        },
        {
          "indexed": false,
          "internalType": "uint256",
          "name": "orderIndex",
          "type": "uint256"
        },
        {
          "indexed": false,
          "internalType": "address",
          "name": "seller",
          "type": "address"
        },
        {
          "indexed": false,
          "internalType": "uint256",
          "name": "timestamp",
          "type": "uint256"
        }
      ],
      "name": "LogCancelSellOrder",
      "type": "event"
    },
    {
      "anonymous": false,
      "inputs": [
        {
          "indexed": false,
          "internalType": "string",
          "name": "symbolName",
          "type": "string"
        },
        {
          "indexed": false,
          "internalType": "uint256",
          "name": "priceInWei",
          "type": "uint256"
        },
        {
          "indexed": false,
          "internalType": "uint256",
          "name": "amount",
          "type": "uint256"
        },
        {
          "indexed": false,
          "internalType": "address",
          "name": "buyer",
          "type": "address"
        },
        {
          "indexed": false,
          "internalType": "uint256",
          "name": "timestamp",
          "type": "uint256"
        }
      ],
      "name": "LogCreateBuyOrder",
      "type": "event"
    },
    {
      "anonymous": false,
      "inputs": [
        {
          "indexed": false,
          "internalType": "string",
          "name": "symbolName",
          "type": "string"
        },
        {
          "indexed": false,
          "internalType": "uint256",
          "name": "priceInWei",
          "type": "uint256"
        },
        {
          "indexed": false,
          "internalType": "uint256",
          "name": "amount",
          "type": "uint256"
        },
        {
          "indexed": false,
          "internalType": "address",
          "name": "seller",
          "type": "address"
        },
        {
          "indexed": false,
          "internalType": "uint256",
          "name": "timestamp",
          "type": "uint256"
        }
      ],
      "name": "LogCreateSellOrder",
      "type": "event"
    },
    {
      "anonymous": false,
      "inputs": [
        {
          "indexed": false,
          "internalType": "address",
          "name": "accountAddress",
          "type": "address"
        },
        {
          "indexed": false,
          "internalType": "uint256",
          "name": "amount",
          "type": "uint256"
        }
      ],
      "name": "LogDepositEther",
      "type": "event"
    },
    {
      "anonymous": false,
      "inputs": [
        {
          "indexed": false,
          "internalType": "string",
          "name": "symbolName",
          "type": "string"
        },
        {
          "indexed": false,
          "internalType": "address",
          "name": "accountAddress",
          "type": "address"
        },
        {
          "indexed": false,
          "internalType": "uint256",
          "name": "amount",
          "type": "uint256"
        },
        {
          "indexed": false,
          "internalType": "uint256",
          "name": "timestamp",
          "type": "uint256"
        }
      ],
      "name": "LogDepositToken",
      "type": "event"
    },
    {
      "anonymous": false,
      "inputs": [
        {
          "indexed": false,
          "internalType": "string",
          "name": "symbolName",
          "type": "string"
        },
        {
          "indexed": false,
          "internalType": "uint256",
          "name": "orderIndex",
          "type": "uint256"
        },
        {
          "indexed": false,
          "internalType": "uint256",
          "name": "priceInWei",
          "type": "uint256"
        },
        {
          "indexed": false,
          "internalType": "uint256",
          "name": "amount",
          "type": "uint256"
        },
        {
          "indexed": false,
          "internalType": "uint256",
          "name": "timestamp",
          "type": "uint256"
        }
      ],
      "name": "LogFulfilBuyOrder",
      "type": "event"
    },
    {
      "anonymous": false,
      "inputs": [
        {
          "indexed": false,
          "internalType": "string",
          "name": "symbolName",
          "type": "string"
        },
        {
          "indexed": false,
          "internalType": "uint256",
          "name": "orderIndex",
          "type": "uint256"
        },
        {
          "indexed": false,
          "internalType": "uint256",
          "name": "priceInWei",
          "type": "uint256"
        },
        {
          "indexed": false,
          "internalType": "uint256",
          "name": "amount",
          "type": "uint256"
        },
        {
          "indexed": false,
          "internalType": "uint256",
          "name": "timestamp",
          "type": "uint256"
        }
      ],
      "name": "LogFulfilSellOrder",
      "type": "event"
    },
    {
      "anonymous": false,
      "inputs": [
        {
          "indexed": false,
          "internalType": "string",
          "name": "symbolName",
          "type": "string"
        },
        {
          "indexed": false,
          "internalType": "uint256",
          "name": "priceInWei",
          "type": "uint256"
        },
        {
          "indexed": false,
          "internalType": "uint256",
          "name": "amount",
          "type": "uint256"
        },
        {
          "indexed": false,
          "internalType": "address",
          "name": "buyer",
          "type": "address"
        },
        {
          "indexed": false,
          "internalType": "uint256",
          "name": "timestamp",
          "type": "uint256"
        }
      ],
      "name": "LogSellToken",
      "type": "event"
    },
    {
      "anonymous": false,
      "inputs": [
        {
          "indexed": false,
          "internalType": "address",
          "name": "accountAddress",
          "type": "address"
        },
        {
          "indexed": false,
          "internalType": "uint256",
          "name": "amount",
          "type": "uint256"
        }
      ],
      "name": "LogWithdrawEther",
      "type": "event"
    },
    {
      "anonymous": false,
      "inputs": [
        {
          "indexed": false,
          "internalType": "string",
          "name": "symbolName",
          "type": "string"
        },
        {
          "indexed": false,
          "internalType": "address",
          "name": "accountAddress",
          "type": "address"
        },
        {
          "indexed": false,
          "internalType": "uint256",
          "name": "amount",
          "type": "uint256"
        },
        {
          "indexed": false,
          "internalType": "uint256",
          "name": "timestamp",
          "type": "uint256"
        }
      ],
      "name": "LogWithdrawToken",
      "type": "event"
    },
    {
      "constant": true,
      "inputs": [],
      "name": "getOwner",
      "outputs": [
        {
          "internalType": "address",
          "name": "",
          "type": "address"
        }
      ],
      "payable": false,
      "stateMutability": "view",
      "type": "function"
    },
    {
      "constant": false,
      "inputs": [],
      "name": "depositEther",
      "outputs": [
        {
          "internalType": "uint256",
          "name": "totalEtherBalanceInWei",
          "type": "uint256"
        }
      ],
      "payable": true,
      "stateMutability": "payable",
      "type": "function"
    },
    {
      "constant": false,
      "inputs": [
        {
          "internalType": "uint256",
          "name": "amountInWei",
          "type": "uint256"
        }
      ],
      "name": "withdrawEther",
      "outputs": [
        {
          "internalType": "uint256",
          "name": "totalEtherBalanceInWei",
          "type": "uint256"
        }
      ],
      "payable": false,
      "stateMutability": "nonpayable",
      "type": "function"
    },
    {
      "constant": true,
      "inputs": [],
      "name": "getEtherBalanceInWei",
      "outputs": [
        {
          "internalType": "uint256",
          "name": "",
          "type": "uint256"
        }
      ],
      "payable": false,
      "stateMutability": "view",
      "type": "function"
    },
    {
      "constant": false,
      "inputs": [
        {
          "internalType": "string",
          "name": "symbolName",
          "type": "string"
        },
        {
          "internalType": "address",
          "name": "EC20TokenAddress",
          "type": "address"
        }
      ],
      "name": "addToken",
      "outputs": [],
      "payable": false,
      "stateMutability": "nonpayable",
      "type": "function"
    },
    {
      "constant": false,
      "inputs": [
        {
          "internalType": "string",
          "name": "symbolName",
          "type": "string"
        },
        {
          "internalType": "uint256",
          "name": "amount",
          "type": "uint256"
        }
      ],
      "name": "depositToken",
      "outputs": [
        {
          "internalType": "uint256",
          "name": "tokenBalance",
          "type": "uint256"
        }
      ],
      "payable": false,
      "stateMutability": "nonpayable",
      "type": "function"
    },
    {
      "constant": false,
      "inputs": [
        {
          "internalType": "string",
          "name": "symbolName",
          "type": "string"
        },
        {
          "internalType": "uint256",
          "name": "amount",
          "type": "uint256"
        }
      ],
      "name": "withdrawToken",
      "outputs": [
        {
          "internalType": "uint256",
          "name": "tokenBalance",
          "type": "uint256"
        }
      ],
      "payable": false,
      "stateMutability": "nonpayable",
      "type": "function"
    },
    {
      "constant": true,
      "inputs": [
        {
          "internalType": "string",
          "name": "symbolName",
          "type": "string"
        }
      ],
      "name": "getBalanceForToken",
      "outputs": [
        {
          "internalType": "uint256",
          "name": "",
          "type": "uint256"
        }
      ],
      "payable": false,
      "stateMutability": "view",
      "type": "function"
    },
    {
      "constant": true,
      "inputs": [
        {
          "internalType": "string",
          "name": "symbolName",
          "type": "string"
        }
      ],
      "name": "getTokenAddress",
      "outputs": [
        {
          "internalType": "address",
          "name": "",
          "type": "address"
        }
      ],
      "payable": false,
      "stateMutability": "view",
      "type": "function"
    },
    {
      "constant": true,
      "inputs": [
        {
          "internalType": "string",
          "name": "symbolName",
          "type": "string"
        }
      ],
      "name": "hasToken",
      "outputs": [
        {
          "internalType": "bool",
          "name": "",
          "type": "bool"
        }
      ],
      "payable": false,
      "stateMutability": "view",
      "type": "function"
    },
    {
      "constant": true,
      "inputs": [],
      "name": "getAllTokens",
      "outputs": [
        {
          "internalType": "string[]",
          "name": "",
          "type": "string[]"
        },
        {
          "internalType": "address[]",
          "name": "",
          "type": "address[]"
        }
      ],
      "payable": false,
      "stateMutability": "view",
      "type": "function"
    },
    {
      "constant": true,
      "inputs": [
        {
          "internalType": "string",
          "name": "symbolName",
          "type": "string"
        }
      ],
      "name": "getTokenIndex",
      "outputs": [
        {
          "internalType": "uint8",
          "name": "",
          "type": "uint8"
        }
      ],
      "payable": false,
      "stateMutability": "view",
      "type": "function"
    },
    {
      "constant": true,
      "inputs": [
        {
          "internalType": "string",
          "name": "symbolName",
          "type": "string"
        }
      ],
      "name": "getBuyOrderBook",
      "outputs": [
        {
          "internalType": "uint256[]",
          "name": "",
          "type": "uint256[]"
        },
        {
          "internalType": "uint256[]",
          "name": "",
          "type": "uint256[]"
        },
        {
          "internalType": "uint256[]",
          "name": "",
          "type": "uint256[]"
        }
      ],
      "payable": false,
      "stateMutability": "view",
      "type": "function"
    },
    {
      "constant": true,
      "inputs": [
        {
          "internalType": "string",
          "name": "symbolName",
          "type": "string"
        }
      ],
      "name": "getAccountBuyOrders",
      "outputs": [
        {
          "internalType": "uint256[]",
          "name": "",
          "type": "uint256[]"
        },
        {
          "internalType": "uint256[]",
          "name": "",
          "type": "uint256[]"
        },
        {
          "internalType": "uint256[]",
          "name": "",
          "type": "uint256[]"
        }
      ],
      "payable": false,
      "stateMutability": "view",
      "type": "function"
    },
    {
      "constant": true,
      "inputs": [
        {
          "internalType": "string",
          "name": "symbolName",
          "type": "string"
        }
      ],
      "name": "getSellOrderBook",
      "outputs": [
        {
          "internalType": "uint256[]",
          "name": "",
          "type": "uint256[]"
        },
        {
          "internalType": "uint256[]",
          "name": "",
          "type": "uint256[]"
        },
        {
          "internalType": "uint256[]",
          "name": "",
          "type": "uint256[]"
        }
      ],
      "payable": false,
      "stateMutability": "view",
      "type": "function"
    },
    {
      "constant": true,
      "inputs": [
        {
          "internalType": "string",
          "name": "symbolName",
          "type": "string"
        }
      ],
      "name": "getAccountSellOrders",
      "outputs": [
        {
          "internalType": "uint256[]",
          "name": "",
          "type": "uint256[]"
        },
        {
          "internalType": "uint256[]",
          "name": "",
          "type": "uint256[]"
        },
        {
          "internalType": "uint256[]",
          "name": "",
          "type": "uint256[]"
        }
      ],
      "payable": false,
      "stateMutability": "view",
      "type": "function"
    },
    {
      "constant": false,
      "inputs": [
        {
          "internalType": "string",
          "name": "symbolName",
          "type": "string"
        },
        {
          "internalType": "uint256",
          "name": "priceInWei",
          "type": "uint256"
        },
        {
          "internalType": "uint256",
          "name": "amount",
          "type": "uint256"
        }
      ],
      "name": "buyToken",
      "outputs": [],
      "payable": false,
      "stateMutability": "nonpayable",
      "type": "function"
    },
    {
      "constant": false,
      "inputs": [
        {
          "internalType": "string",
          "name": "symbolName",
          "type": "string"
        },
        {
          "internalType": "uint256",
          "name": "priceInWei",
          "type": "uint256"
        },
        {
          "internalType": "uint256",
          "name": "amount",
          "type": "uint256"
        }
      ],
      "name": "sellToken",
      "outputs": [],
      "payable": false,
      "stateMutability": "nonpayable",
      "type": "function"
    },
    {
      "constant": false,
      "inputs": [
        {
          "internalType": "string",
          "name": "symbolName",
          "type": "string"
        },
        {
          "internalType": "uint256",
          "name": "orderIndex",
          "type": "uint256"
        }
      ],
      "name": "cancelBuyOrder",
      "outputs": [],
      "payable": false,
      "stateMutability": "nonpayable",
      "type": "function"
    },
    {
      "constant": false,
      "inputs": [
        {
          "internalType": "string",
          "name": "symbolName",
          "type": "string"
        },
        {
          "internalType": "uint256",
          "name": "orderIndex",
          "type": "uint256"
        }
      ],
      "name": "cancelSellOrder",
      "outputs": [],
      "payable": false,
      "stateMutability": "nonpayable",
      "type": "function"
    }
  ],
  "bytecode": "0x608060405234801561001057600080fd5b50336000806101000a81548173ffffffffffffffffffffffffffffffffffffffff021916908373ffffffffffffffffffffffffffffffffffffffff1602179055506001600260006101000a81548160ff021916908360ff1602179055506141788061007c6000396000f3fe60806040526004361061011e5760003560e01c80637bf3951e116100a057806398ea5fca1161006457806398ea5fca1461044d578063b0b22c2c1461046b578063b4f6aa3814610494578063c4091236146104bd578063c97a413a146104fa5761011e565b80637bf3951e14610356578063851030fe1461037f578063893d20e8146103a85780638ea00818146103d3578063965e211f146104105761011e565b80633bed33ce116100e75780633bed33ce146102495780635320024e146102865780635ab8ea33146102b15780635f968767146102da578063728ff029146103175761011e565b8062b619871461012357806303bc4a27146101625780632a5c792a146101a157806333ad57e4146101cd5780633a2c8eab1461020a575b600080fd5b34801561012f57600080fd5b5061014a60048036036101459190810190613740565b610537565b60405161015993929190613c6f565b60405180910390f35b34801561016e57600080fd5b5061018960048036036101849190810190613740565b61087f565b60405161019893929190613c6f565b60405180910390f35b3480156101ad57600080fd5b506101b6610b65565b6040516101c4929190613c38565b60405180910390f35b3480156101d957600080fd5b506101f460048036036101ef91908101906137d5565b610d97565b6040516102019190613e22565b60405180910390f35b34801561021657600080fd5b50610231600480360361022c9190810190613740565b610f6b565b60405161024093929190613c6f565b60405180910390f35b34801561025557600080fd5b50610270600480360361026b9190810190613890565b6112b3565b60405161027d9190613e22565b60405180910390f35b34801561029257600080fd5b5061029b6113a5565b6040516102a89190613e22565b60405180910390f35b3480156102bd57600080fd5b506102d860048036036102d39190810190613829565b6113ec565b005b3480156102e657600080fd5b5061030160048036036102fc9190810190613740565b611492565b60405161030e9190613e3d565b60405180910390f35b34801561032357600080fd5b5061033e60048036036103399190810190613740565b611516565b60405161034d93929190613c6f565b60405180910390f35b34801561036257600080fd5b5061037d600480360361037891908101906137d5565b6117fc565b005b34801561038b57600080fd5b506103a660048036036103a19190810190613829565b611aef565b005b3480156103b457600080fd5b506103bd611c07565b6040516103ca9190613bbd565b60405180910390f35b3480156103df57600080fd5b506103fa60048036036103f59190810190613740565b611c30565b6040516104079190613cbb565b60405180910390f35b34801561041c57600080fd5b5061043760048036036104329190810190613740565b611c47565b6040516104449190613e22565b60405180910390f35b610455611caf565b6040516104629190613e22565b60405180910390f35b34801561047757600080fd5b50610492600480360361048d9190810190613781565b611d61565b005b3480156104a057600080fd5b506104bb60048036036104b691908101906137d5565b611f2d565b005b3480156104c957600080fd5b506104e460048036036104df9190810190613740565b6121fd565b6040516104f19190613bbd565b60405180910390f35b34801561050657600080fd5b50610521600480360361051c91908101906137d5565b612263565b60405161052e9190613e22565b60405180910390f35b606080606061054584611c30565b61054e57600080fd5b600061055985611492565b9050606080606061056988611516565b92509250925060008090506060600160008760ff1660ff168152602001908152602001600020600601600201546040519080825280602002602001820160405280156105c45781602001602082028038833980820191505090505b50905060008090505b600160008860ff1660ff168152602001908152602001600020600601600201548110156106c357600086828151811061060257fe5b602002602001015190503373ffffffffffffffffffffffffffffffffffffffff16600160008a60ff1660ff168152602001908152602001600020600601600101600083815260200190815260200160002060020160009054906101000a900473ffffffffffffffffffffffffffffffffffffffff1673ffffffffffffffffffffffffffffffffffffffff1614156106b557808385815181106106a057fe5b60200260200101818152505083806001019450505b5080806001019150506105cd565b506060826040519080825280602002602001820160405280156106f55781602001602082028038833980820191505090505b5090506060836040519080825280602002602001820160405280156107295781602001602082028038833980820191505090505b50905060608460405190808252806020026020018201604052801561075d5781602001602082028038833980820191505090505b50905060008090505b858110156108655784818151811061077a57fe5b602002602001015184828151811061078e57fe5b602002602001018181525050600160008b60ff1660ff16815260200190815260200160002060060160010160008683815181106107c757fe5b60200260200101518152602001908152602001600020600001548382815181106107ed57fe5b602002602001018181525050600160008b60ff1660ff168152602001908152602001600020600601600101600086838151811061082657fe5b602002602001015181526020019081526020016000206001015482828151811061084c57fe5b6020026020010181815250508080600101915050610766565b508282829b509b509b505050505050505050509193909250565b606080606061088d84611c30565b61089657600080fd5b60006108a185611492565b90506060600160008360ff1660ff168152602001908152602001600020600201600201546040519080825280602002602001820160405280156108f35781602001602082028038833980820191505090505b5090506060600160008460ff1660ff168152602001908152602001600020600201600201546040519080825280602002602001820160405280156109465781602001602082028038833980820191505090505b5090506060600160008560ff1660ff168152602001908152602001600020600201600201546040519080825280602002602001820160405280156109995781602001602082028038833980820191505090505b5090506000600190505b600160008660ff1660ff168152602001908152602001600020600201600201548111610b50576109d161355b565b600160008760ff1660ff1681526020019081526020016000206002016001016000600160008960ff1660ff1681526020019081526020016000206002016003016001850381548110610a1f57fe5b9060005260206000200154815260200190815260200160002060405180606001604052908160008201548152602001600182015481526020016002820160009054906101000a900473ffffffffffffffffffffffffffffffffffffffff1673ffffffffffffffffffffffffffffffffffffffff1673ffffffffffffffffffffffffffffffffffffffff16815250509050600160008760ff1660ff1681526020019081526020016000206002016003016001830381548110610adc57fe5b9060005260206000200154856001840381518110610af657fe5b6020026020010181815250508060000151846001840381518110610b1657fe5b6020026020010181815250508060200151836001840381518110610b3657fe5b6020026020010181815250505080806001019150506109a3565b50828282965096509650505050509193909250565b60608060606001600260009054906101000a900460ff160360ff16604051908082528060200260200182016040528015610bb357816020015b6060815260200190600190039081610b9e5790505b50905060606001600260009054906101000a900460ff160360ff16604051908082528060200260200182016040528015610bfc5781602001602082028038833980820191505090505b5090506000600290505b600260009054906101000a900460ff1660ff168160ff1611610d8a57600160008260ff1660ff1681526020019081526020016000206001018054600181600116156101000203166002900480601f016020809104026020016040519081016040528092919081815260200182805460018160011615610100020316600290048015610cd25780601f10610ca757610100808354040283529160200191610cd2565b820191906000526020600020905b815481529060010190602001808311610cb557829003601f168201915b5050505050836002830360ff1681518110610ce957fe5b6020026020010181905250600160008260ff1660ff16815260200190815260200160002060000160009054906101000a900473ffffffffffffffffffffffffffffffffffffffff16826002830360ff1681518110610d4357fe5b602002602001019073ffffffffffffffffffffffffffffffffffffffff16908173ffffffffffffffffffffffffffffffffffffffff16815250508080600101915050610c06565b5081819350935050509091565b6000610da283611c30565b610dab57600080fd5b610db483611c47565b82610dbe85611c47565b011015610dca57600080fd5b6000610dd584611492565b90506000600160008360ff1660ff16815260200190815260200160002060000160009054906101000a900473ffffffffffffffffffffffffffffffffffffffff169050600115158173ffffffffffffffffffffffffffffffffffffffff166323b872dd3330886040518463ffffffff1660e01b8152600401610e5993929190613bd8565b602060405180830381600087803b158015610e7357600080fd5b505af1158015610e87573d6000803e3d6000fd5b505050506040513d601f19601f82011682018060405250610eab9190810190613717565b151514610eb757600080fd5b83600360003373ffffffffffffffffffffffffffffffffffffffff1673ffffffffffffffffffffffffffffffffffffffff16815260200190815260200160002060008460ff1660ff168152602001908152602001600020600082825401925050819055507f4dbc01516018d27f28f32ddd20595428f662140f1fff79b754484578ac27fc1985338642604051610f509493929190613cd6565b60405180910390a1610f6185611c47565b9250505092915050565b6060806060610f7984611c30565b610f8257600080fd5b6000610f8d85611492565b90506060806060610f9d8861087f565b92509250925060008090506060600160008760ff1660ff16815260200190815260200160002060020160020154604051908082528060200260200182016040528015610ff85781602001602082028038833980820191505090505b50905060008090505b600160008860ff1660ff168152602001908152602001600020600201600201548110156110f757600086828151811061103657fe5b602002602001015190503373ffffffffffffffffffffffffffffffffffffffff16600160008a60ff1660ff168152602001908152602001600020600201600101600083815260200190815260200160002060020160009054906101000a900473ffffffffffffffffffffffffffffffffffffffff1673ffffffffffffffffffffffffffffffffffffffff1614156110e957808385815181106110d457fe5b60200260200101818152505083806001019450505b508080600101915050611001565b506060826040519080825280602002602001820160405280156111295781602001602082028038833980820191505090505b50905060608360405190808252806020026020018201604052801561115d5781602001602082028038833980820191505090505b5090506060846040519080825280602002602001820160405280156111915781602001602082028038833980820191505090505b50905060008090505b85811015611299578481815181106111ae57fe5b60200260200101518482815181106111c257fe5b602002602001018181525050600160008b60ff1660ff16815260200190815260200160002060020160010160008683815181106111fb57fe5b602002602001015181526020019081526020016000206000015483828151811061122157fe5b602002602001018181525050600160008b60ff1660ff168152602001908152602001600020600201600101600086838151811061125a57fe5b602002602001015181526020019081526020016000206001015482828151811061128057fe5b602002602001018181525050808060010191505061119a565b508282829b509b509b505050505050505050509193909250565b60006112bd6113a5565b8211156112c957600080fd5b81600460003373ffffffffffffffffffffffffffffffffffffffff1673ffffffffffffffffffffffffffffffffffffffff168152602001908152602001600020600082825403925050819055503373ffffffffffffffffffffffffffffffffffffffff166108fc839081150290604051600060405180830381858888f1935050505015801561135c573d6000803e3d6000fd5b507fafa3d4523ab440f1468d58fc053ae2fa902d63b75866f46210956313cc5f3715338360405161138e929190613c0f565b60405180910390a161139e6113a5565b9050919050565b6000600460003373ffffffffffffffffffffffffffffffffffffffff1673ffffffffffffffffffffffffffffffffffffffff16815260200190815260200160002054905090565b6113f583611c30565b6113fe57600080fd5b6000821161140b57600080fd5b6000811161141857600080fd5b600081830290506114276113a5565b81111561143357600080fd5b80600460003373ffffffffffffffffffffffffffffffffffffffff1673ffffffffffffffffffffffffffffffffffffffff1681526020019081526020016000206000828254039250508190555061148c8484843361242b565b50505050565b600080600190505b600260009054906101000a900460ff1660ff168160ff161161150b57600160008260ff1660ff1681526020019081526020016000206001016040516114df9190613ba6565b6040518091039020838051906020012014156114fe5780915050611511565b808060010191505061149a565b50600090505b919050565b606080606061152484611c30565b61152d57600080fd5b600061153885611492565b90506060600160008360ff1660ff1681526020019081526020016000206006016002015460405190808252806020026020018201604052801561158a5781602001602082028038833980820191505090505b5090506060600160008460ff1660ff168152602001908152602001600020600601600201546040519080825280602002602001820160405280156115dd5781602001602082028038833980820191505090505b5090506060600160008560ff1660ff168152602001908152602001600020600601600201546040519080825280602002602001820160405280156116305781602001602082028038833980820191505090505b5090506000600190505b600160008660ff1660ff1681526020019081526020016000206006016002015481116117e75761166861355b565b600160008760ff1660ff1681526020019081526020016000206006016001016000600160008960ff1660ff16815260200190815260200160002060060160030160018503815481106116b657fe5b9060005260206000200154815260200190815260200160002060405180606001604052908160008201548152602001600182015481526020016002820160009054906101000a900473ffffffffffffffffffffffffffffffffffffffff1673ffffffffffffffffffffffffffffffffffffffff1673ffffffffffffffffffffffffffffffffffffffff16815250509050600160008760ff1660ff168152602001908152602001600020600601600301600183038154811061177357fe5b906000526020600020015485600184038151811061178d57fe5b60200260200101818152505080600001518460018403815181106117ad57fe5b60200260200101818152505080602001518360018403815181106117cd57fe5b60200260200101818152505050808060010191505061163a565b50828282965096509650505050509193909250565b61180582611c30565b61180e57600080fd5b600061181983611492565b90506000600160008360ff1660ff168152602001908152602001600020600201600201541161184757600080fd5b60008090506000809050606060018060008660ff1660ff16815260200190815260200160002060020160020154036040519080825280602002602001820160405280156118a35781602001602082028038833980820191505090505b50905060008060008090505b600160008860ff1660ff168152602001908152602001600020600201600201548110156119ea57600160008860ff1660ff168152602001908152602001600020600201600301818154811061190057fe5b90600052602060002001548814156119875760019550600160008860ff1660ff1681526020019081526020016000206002016001016000898152602001908152602001600020600001549250600160008860ff1660ff16815260200190815260200160002060020160010160008981526020019081526020016000206001015491506119dd565b600160008860ff1660ff16815260200190815260200160002060020160030181815481106119b157fe5b90600052602060002001548486815181106119c857fe5b60200260200101818152505084806001019550505b80806001019150506118af565b50846119f557600080fd5b600160008760ff1660ff168152602001908152602001600020600201600201600081548092919060019003919050555082600160008860ff1660ff1681526020019081526020016000206002016003019080519060200190611a58929190613592565b50808202600460003373ffffffffffffffffffffffffffffffffffffffff1673ffffffffffffffffffffffffffffffffffffffff168152602001908152602001600020600082825401925050819055507f91f7e29d62ec7c601d9a424db70272575c8e2bb09142a977b4a213c96464129e88883342604051611add9493929190613d22565b60405180910390a15050505050505050565b611af883611c30565b611b0157600080fd5b60008211611b0e57600080fd5b60008111611b1b57600080fd5b6000611b2684611492565b90506000600360003373ffffffffffffffffffffffffffffffffffffffff1673ffffffffffffffffffffffffffffffffffffffff16815260200190815260200160002060008360ff1660ff16815260200190815260200160002054905080831115611b9057600080fd5b82600360003373ffffffffffffffffffffffffffffffffffffffff1673ffffffffffffffffffffffffffffffffffffffff16815260200190815260200160002060008460ff1660ff16815260200190815260200160002060008282540392505081905550611c00858585336127c3565b5050505050565b60008060009054906101000a900473ffffffffffffffffffffffffffffffffffffffff16905090565b600080611c3c83611492565b60ff16119050919050565b6000600360003373ffffffffffffffffffffffffffffffffffffffff1673ffffffffffffffffffffffffffffffffffffffff1681526020019081526020016000206000611c9384611492565b60ff1660ff168152602001908152602001600020549050919050565b6000611cb96113a5565b34611cc26113a5565b011015611cce57600080fd5b34600460003373ffffffffffffffffffffffffffffffffffffffff1673ffffffffffffffffffffffffffffffffffffffff168152602001908152602001600020600082825401925050819055507f10dbe332619683814acf7c1cd13290910fb3f8ea58c00dba740cb822df5fdf533334604051611d4c929190613c0f565b60405180910390a1611d5c6113a5565b905090565b6000809054906101000a900473ffffffffffffffffffffffffffffffffffffffff1673ffffffffffffffffffffffffffffffffffffffff163373ffffffffffffffffffffffffffffffffffffffff1614611dba57600080fd5b611dc382611c30565b15611dcd57600080fd5b600260009054906101000a900460ff1660ff166001600260009054906101000a900460ff160160ff161015611e0157600080fd5b6002600081819054906101000a900460ff168092919060010191906101000a81548160ff021916908360ff160217905550508160016000600260009054906101000a900460ff1660ff1660ff1681526020019081526020016000206001019080519060200190611e729291906135df565b508060016000600260009054906101000a900460ff1660ff1660ff16815260200190815260200160002060000160006101000a81548173ffffffffffffffffffffffffffffffffffffffff021916908373ffffffffffffffffffffffffffffffffffffffff1602179055507f1723c709bc871c32c420d3c2d2837cdd4bef40c574088c1d055e1f4f609d2377600260009054906101000a900460ff16838342604051611f219493929190613e58565b60405180910390a15050565b611f3682611c30565b611f3f57600080fd5b6000611f4a83611492565b90506000600160008360ff1660ff1681526020019081526020016000206006016002015411611f7857600080fd5b60008090506000809050606060018060008660ff1660ff1681526020019081526020016000206006016002015403604051908082528060200260200182016040528015611fd45781602001602082028038833980820191505090505b509050600080600090505b600160008760ff1660ff168152602001908152602001600020600601600201548110156120e457600160008760ff1660ff168152602001908152602001600020600601600301818154811061203057fe5b90600052602060002001548714156120815760019450600160008760ff1660ff16815260200190815260200160002060060160010160008881526020019081526020016000206001015491506120d7565b600160008760ff1660ff16815260200190815260200160002060060160030181815481106120ab57fe5b90600052602060002001548385815181106120c257fe5b60200260200101818152505083806001019450505b8080600101915050611fdf565b50836120ef57600080fd5b600160008660ff1660ff168152602001908152602001600020600601600201600081548092919060019003919050555081600160008760ff1660ff1681526020019081526020016000206006016003019080519060200190612152929190613592565b5080600360003373ffffffffffffffffffffffffffffffffffffffff1673ffffffffffffffffffffffffffffffffffffffff16815260200190815260200160002060008760ff1660ff168152602001908152602001600020600082825401925050819055507ffb83029a92d41167efc16e5c94c049d5e0a210747defe894b95dbfa90e4b615b878733426040516121ec9493929190613d22565b60405180910390a150505050505050565b600061220882611c30565b61221157600080fd5b600061221c83611492565b9050600160008260ff1660ff16815260200190815260200160002060000160009054906101000a900473ffffffffffffffffffffffffffffffffffffffff16915050919050565b600061226e83611c30565b61227757600080fd5b61228083611c47565b82111561228c57600080fd5b600061229784611492565b90506000600160008360ff1660ff16815260200190815260200160002060000160009054906101000a900473ffffffffffffffffffffffffffffffffffffffff16905083600360003373ffffffffffffffffffffffffffffffffffffffff1673ffffffffffffffffffffffffffffffffffffffff16815260200190815260200160002060008460ff1660ff16815260200190815260200160002060008282540392505081905550600115158173ffffffffffffffffffffffffffffffffffffffff1663a9059cbb33876040518363ffffffff1660e01b815260040161237d929190613c0f565b602060405180830381600087803b15801561239757600080fd5b505af11580156123ab573d6000803e3d6000fd5b505050506040513d601f19601f820116820180604052506123cf9190810190613717565b1515146123db57600080fd5b7fc0a144e0d9af86fa328820e6f7f9e66f6e2a7248ff06a92aa13dc1f01e26934f853386426040516124109493929190613cd6565b60405180910390a161242185611c47565b9250505092915050565b61243484611c30565b61243d57600080fd5b600061244885611492565b905060008390506000600160008460ff1660ff16815260200190815260200160002060060160020154111561248557612482868287612b5b565b90505b60008111156127bb57606080606061249c8961087f565b9250925092506000600160008760ff1660ff1681526020019081526020016000206002016000016000815460010191905081905590506060816040519080825280602002602001820160405280156125035781602001602082028038833980820191505090505b50905060008090506000600160008a60ff1660ff16815260200190815260200160002060020160020154141561255657828260008151811061254157fe5b60200260200101818152505060019050612653565b600080905060008090505b600160008b60ff1660ff1681526020019081526020016000206002016002015481101561263157821580156125a8575086818151811061259d57fe5b60200260200101518d115b156125d157848483806001019450815181106125c057fe5b602002602001018181525050600192505b600160008b60ff1660ff16815260200190815260200160002060020160030181815481106125fb57fe5b906000526020600020015484838060010194508151811061261857fe5b6020026020010181815250508080600101915050612561565b5081612651578383828151811061264457fe5b6020026020010181815250505b505b81600160008a60ff1660ff1681526020019081526020016000206002016003019080519060200190612686929190613592565b50600160008960ff1660ff1681526020019081526020016000206002016002016000815480929190600101919050555060405180606001604052808c81526020018881526020013373ffffffffffffffffffffffffffffffffffffffff16815250600160008a60ff1660ff1681526020019081526020016000206002016001016000858152602001908152602001600020600082015181600001556020820151816001015560408201518160020160006101000a81548173ffffffffffffffffffffffffffffffffffffffff021916908373ffffffffffffffffffffffffffffffffffffffff1602179055509050507f2de269261b886d6f12010f4e8cc2640cec96acd4a5929467470dff059ebe20fd8c8c898c426040516127ac959493929190613d6e565b60405180910390a15050505050505b505050505050565b6127cc84611c30565b6127d557600080fd5b60006127e085611492565b905060008390506000600160008460ff1660ff16815260200190815260200160002060020160020154111561281d5761281a86828761305b565b90505b6000811115612b5357606080606061283489611516565b9250925092506000600160008760ff1660ff16815260200190815260200160002060060160000160008154600101919050819055905060608160405190808252806020026020018201604052801561289b5781602001602082028038833980820191505090505b50905060008090506000600160008a60ff1660ff1681526020019081526020016000206006016002015414156128ee5782826000815181106128d957fe5b602002602001018181525050600190506129eb565b600080905060008090505b600160008b60ff1660ff168152602001908152602001600020600601600201548110156129c95782158015612940575086818151811061293557fe5b60200260200101518d105b15612969578484838060010194508151811061295857fe5b602002602001018181525050600192505b600160008b60ff1660ff168152602001908152602001600020600601600301818154811061299357fe5b90600052602060002001548483806001019450815181106129b057fe5b60200260200101818152505080806001019150506128f9565b50816129e957838382815181106129dc57fe5b6020026020010181815250505b505b81600160008a60ff1660ff1681526020019081526020016000206006016003019080519060200190612a1e929190613592565b50600160008960ff1660ff1681526020019081526020016000206006016002016000815480929190600101919050555060405180606001604052808c81526020018b81526020013373ffffffffffffffffffffffffffffffffffffffff16815250600160008a60ff1660ff1681526020019081526020016000206006016001016000858152602001908152602001600020600082015181600001556020820151816001015560408201518160020160006101000a81548173ffffffffffffffffffffffffffffffffffffffff021916908373ffffffffffffffffffffffffffffffffffffffff1602179055509050507f2e8dd72bba201f077aad453aa17da4eafeb723120abaccbe15ad5a5758f80bc78c8c8c8c42604051612b44959493929190613d6e565b60405180910390a15050505050505b505050505050565b600080612b6785611492565b90506000600160008360ff1660ff168152602001908152602001600020600601600201549050600080905060008090505b82811015612f4d576000871415612bae57612f4d565b6000600160008660ff1660ff1681526020019081526020016000206006016003018281548110612bda57fe5b906000526020600020015490506000600160008760ff1660ff16815260200190815260200160002060060160010160008381526020019081526020016000206000015490506000600160008860ff1660ff16815260200190815260200160002060060160010160008481526020019081526020016000206001015490506000600160008960ff1660ff168152602001908152602001600020600601600101600085815260200190815260200160002060020160009054906101000a900473ffffffffffffffffffffffffffffffffffffffff169050828a1015612cc05750505050612f4d565b818b10612e0457818b039a506000600160008a60ff1660ff16815260200190815260200160002060060160010160008681526020019081526020016000206001018190555085806001019650507f8f088eedf24a9093e9ff818342e44f4a8cb6157e081f92290f2b15e04cc488468c858c8542604051612d44959493929190613dc8565b60405180910390a1818a02600460008373ffffffffffffffffffffffffffffffffffffffff1673ffffffffffffffffffffffffffffffffffffffff1681526020019081526020016000206000828254019250508190555081600360003373ffffffffffffffffffffffffffffffffffffffff1673ffffffffffffffffffffffffffffffffffffffff16815260200190815260200160002060008a60ff1660ff16815260200190815260200160002060008282540192505081905550612f3c565b8a600160008a60ff1660ff1681526020019081526020016000206006016001016000868152602001908152602001600020600101600082825403925050819055507f8f088eedf24a9093e9ff818342e44f4a8cb6157e081f92290f2b15e04cc488468c858c8e42604051612e7c959493929190613dc8565b60405180910390a18a8a02600460008373ffffffffffffffffffffffffffffffffffffffff1673ffffffffffffffffffffffffffffffffffffffff168152602001908152602001600020600082825401925050819055508a600360003373ffffffffffffffffffffffffffffffffffffffff1673ffffffffffffffffffffffffffffffffffffffff16815260200190815260200160002060008a60ff1660ff1681526020019081526020016000206000828254019250508190555060009a505b505050508080600101915050612b98565b5060008183039050606081604051908082528060200260200182016040528015612f865781602001602082028038833980820191505090505b50905060008090505b82811015612ff357600160008760ff1660ff16815260200190815260200160002060060160030184820181548110612fc357fe5b9060005260206000200154828281518110612fda57fe5b6020026020010181815250508080600101915050612f8f565b5081600160008760ff1660ff1681526020019081526020016000206006016002018190555080600160008760ff1660ff168152602001908152602001600020600601600301908051906020019061304b929190613592565b5087955050505050509392505050565b60008061306785611492565b90506000600160008360ff1660ff168152602001908152602001600020600201600201549050600080905060008090505b8281101561344d5760008714156130ae5761344d565b6000600160008660ff1660ff16815260200190815260200160002060020160030182815481106130da57fe5b906000526020600020015490506000600160008760ff1660ff16815260200190815260200160002060020160010160008381526020019081526020016000206000015490506000600160008860ff1660ff16815260200190815260200160002060020160010160008481526020019081526020016000206001015490506000600160008960ff1660ff168152602001908152602001600020600201600101600085815260200190815260200160002060020160009054906101000a900473ffffffffffffffffffffffffffffffffffffffff169050828a11156131c0575050505061344d565b818b1061330457818b039a506000600160008a60ff1660ff16815260200190815260200160002060020160010160008681526020019081526020016000206001018190555085806001019650507f9cb5e28f986c120597ae4060e4c911a901e5a54006024967d04f12c91867a0658c858c8542604051613244959493929190613dc8565b60405180910390a181600360008373ffffffffffffffffffffffffffffffffffffffff1673ffffffffffffffffffffffffffffffffffffffff16815260200190815260200160002060008a60ff1660ff16815260200190815260200160002060008282540192505081905550818a02600460003373ffffffffffffffffffffffffffffffffffffffff1673ffffffffffffffffffffffffffffffffffffffff1681526020019081526020016000206000828254019250508190555061343c565b8a600160008a60ff1660ff1681526020019081526020016000206002016001016000868152602001908152602001600020600101600082825403925050819055507f9cb5e28f986c120597ae4060e4c911a901e5a54006024967d04f12c91867a0658c858c8e4260405161337c959493929190613dc8565b60405180910390a18a600360008373ffffffffffffffffffffffffffffffffffffffff1673ffffffffffffffffffffffffffffffffffffffff16815260200190815260200160002060008a60ff1660ff168152602001908152602001600020600082825401925050819055508a8a02600460003373ffffffffffffffffffffffffffffffffffffffff1673ffffffffffffffffffffffffffffffffffffffff1681526020019081526020016000206000828254019250508190555060009a505b505050508080600101915050613098565b50600081830390506060816040519080825280602002602001820160405280156134865781602001602082028038833980820191505090505b50905060008090505b828110156134f357600160008760ff1660ff168152602001908152602001600020600201600301848201815481106134c357fe5b90600052602060002001548282815181106134da57fe5b602002602001018181525050808060010191505061348f565b5081600160008760ff1660ff1681526020019081526020016000206002016002018190555080600160008760ff1660ff168152602001908152602001600020600201600301908051906020019061354b929190613592565b5087955050505050509392505050565b60405180606001604052806000815260200160008152602001600073ffffffffffffffffffffffffffffffffffffffff1681525090565b8280548282559060005260206000209081019282156135ce579160200282015b828111156135cd5782518255916020019190600101906135b2565b5b5090506135db919061365f565b5090565b828054600181600116156101000203166002900490600052602060002090601f016020900481019282601f1061362057805160ff191683800117855561364e565b8280016001018555821561364e579182015b8281111561364d578251825591602001919060010190613632565b5b50905061365b919061365f565b5090565b61368191905b8082111561367d576000816000905550600101613665565b5090565b90565b600081359050613693816140f0565b92915050565b6000815190506136a881614107565b92915050565b600082601f8301126136bf57600080fd5b81356136d26136cd82613ed1565b613ea4565b915080825260208301602083018583830111156136ee57600080fd5b6136f983828461409d565b50505092915050565b6000813590506137118161411e565b92915050565b60006020828403121561372957600080fd5b600061373784828501613699565b91505092915050565b60006020828403121561375257600080fd5b600082013567ffffffffffffffff81111561376c57600080fd5b613778848285016136ae565b91505092915050565b6000806040838503121561379457600080fd5b600083013567ffffffffffffffff8111156137ae57600080fd5b6137ba858286016136ae565b92505060206137cb85828601613684565b9150509250929050565b600080604083850312156137e857600080fd5b600083013567ffffffffffffffff81111561380257600080fd5b61380e858286016136ae565b925050602061381f85828601613702565b9150509250929050565b60008060006060848603121561383e57600080fd5b600084013567ffffffffffffffff81111561385857600080fd5b613864868287016136ae565b935050602061387586828701613702565b925050604061388686828701613702565b9150509250925092565b6000602082840312156138a257600080fd5b60006138b084828501613702565b91505092915050565b60006138c5838361390c565b60208301905092915050565b60006138dd8383613b31565b905092915050565b60006138f18383613b6a565b60208301905092915050565b61390681614055565b82525050565b61391581614000565b82525050565b61392481614000565b82525050565b600061393582613f42565b61393f8185613fa0565b935061394a83613efd565b8060005b8381101561397b57815161396288826138b9565b975061396d83613f79565b92505060018101905061394e565b5085935050505092915050565b600061399382613f4d565b61399d8185613fb1565b9350836020820285016139af85613f0d565b8060005b858110156139eb57848403895281516139cc85826138d1565b94506139d783613f86565b925060208a019950506001810190506139b3565b50829750879550505050505092915050565b6000613a0882613f58565b613a128185613fc2565b9350613a1d83613f1d565b8060005b83811015613a4e578151613a3588826138e5565b9750613a4083613f93565b925050600181019050613a21565b5085935050505092915050565b613a6481614012565b82525050565b600081546001811660008114613a875760018114613aac57613af0565b607f6002830416613a988187613fd3565b955060ff1983168652808601935050613af0565b60028204613aba8187613fd3565b9550613ac585613f2d565b60005b82811015613ae757815481890152600182019150602081019050613ac8565b82880195505050505b505092915050565b6000613b0382613f6e565b613b0d8185613fef565b9350613b1d8185602086016140ac565b613b26816140df565b840191505092915050565b6000613b3c82613f63565b613b468185613fde565b9350613b568185602086016140ac565b613b5f816140df565b840191505092915050565b613b738161403e565b82525050565b613b828161403e565b82525050565b613b918161408b565b82525050565b613ba081614048565b82525050565b6000613bb28284613a6a565b915081905092915050565b6000602082019050613bd2600083018461391b565b92915050565b6000606082019050613bed60008301866138fd565b613bfa602083018561391b565b613c076040830184613b79565b949350505050565b6000604082019050613c2460008301856138fd565b613c316020830184613b79565b9392505050565b60006040820190508181036000830152613c528185613988565b90508181036020830152613c66818461392a565b90509392505050565b60006060820190508181036000830152613c8981866139fd565b90508181036020830152613c9d81856139fd565b90508181036040830152613cb181846139fd565b9050949350505050565b6000602082019050613cd06000830184613a5b565b92915050565b60006080820190508181036000830152613cf08187613af8565b9050613cff60208301866138fd565b613d0c6040830185613b79565b613d196060830184613b79565b95945050505050565b60006080820190508181036000830152613d3c8187613af8565b9050613d4b6020830186613b79565b613d5860408301856138fd565b613d656060830184613b79565b95945050505050565b600060a0820190508181036000830152613d888188613af8565b9050613d976020830187613b79565b613da46040830186613b79565b613db1606083018561391b565b613dbe6080830184613b79565b9695505050505050565b600060a0820190508181036000830152613de28188613af8565b9050613df16020830187613b79565b613dfe6040830186613b79565b613e0b6060830185613b79565b613e186080830184613b79565b9695505050505050565b6000602082019050613e376000830184613b79565b92915050565b6000602082019050613e526000830184613b97565b92915050565b6000608082019050613e6d6000830187613b88565b8181036020830152613e7f8186613af8565b9050613e8e604083018561391b565b613e9b6060830184613b79565b95945050505050565b6000604051905081810181811067ffffffffffffffff82111715613ec757600080fd5b8060405250919050565b600067ffffffffffffffff821115613ee857600080fd5b601f19601f8301169050602081019050919050565b6000819050602082019050919050565b6000819050602082019050919050565b6000819050602082019050919050565b60008190508160005260206000209050919050565b600081519050919050565b600081519050919050565b600081519050919050565b600081519050919050565b600081519050919050565b6000602082019050919050565b6000602082019050919050565b6000602082019050919050565b600082825260208201905092915050565b600082825260208201905092915050565b600082825260208201905092915050565b600081905092915050565b600082825260208201905092915050565b600082825260208201905092915050565b600061400b8261401e565b9050919050565b60008115159050919050565b600073ffffffffffffffffffffffffffffffffffffffff82169050919050565b6000819050919050565b600060ff82169050919050565b600061406082614067565b9050919050565b600061407282614079565b9050919050565b60006140848261401e565b9050919050565b600061409682614048565b9050919050565b82818337600083830152505050565b60005b838110156140ca5780820151818401526020810190506140af565b838111156140d9576000848401525b50505050565b6000601f19601f8301169050919050565b6140f981614000565b811461410457600080fd5b50565b61411081614012565b811461411b57600080fd5b50565b6141278161403e565b811461413257600080fd5b5056fea365627a7a7231582041b280ee9a5b8db4c0898d8df2d85cbfa00b790d796a58d74b25a9c7f0ced42b6c6578706572696d656e74616cf564736f6c63430005100040",
  "source": "// SPDX-License-Identifier: MIT\r\npragma solidity >=0.4.22 <0.8.0;\r\npragma experimental ABIEncoderV2;\r\n\r\nimport \"./owned.sol\";\r\nimport \"./Token.sol\";\r\n\r\ncontract Exchange is owned {\r\n\r\n\t///////////////\r\n\t/* STRUCTURE */\r\n\t///////////////\r\n\r\n\tstruct Token {\r\n\r\n\t\taddress contractAddress;\r\n\t\tstring symbolName;\r\n\r\n\t\tOrderBook buyOrderBook;\r\n\t\tOrderBook sellOrderBook;\r\n\r\n  }\r\n\r\n\tstruct Order {\r\n\t\t\r\n\t\tuint price;\r\n\t\tuint amount;\r\n\t\taddress who;\r\n\r\n  }\r\n\r\n\tstruct OrderBook {\r\n\r\n\t\tuint orderIndex;\r\n\t\tmapping (uint => Order) orders;\t\t\r\n\r\n\t\tuint ordersCount;\r\n\t\tuint[] ordersQueue;\r\n\r\n  }\r\n\r\n\tmapping(uint8 => Token) tokens;\r\n\tuint8 tokenIndex;\t\r\n\r\n  mapping (address => mapping(uint8 => uint)) tokenBalanceForAddress;\r\n\r\n  mapping (address => uint) etherBalanceForAddress;\r\n\r\n\tconstructor () public {\r\n\t\towner = msg.sender;\r\n\t\ttokenIndex = 1;\r\n\t}\r\n\r\n\t////////////\r\n\t/* EVENTS */\r\n\t////////////\r\n\r\n\tevent LogDepositEther(address accountAddress, uint amount);\r\n\tevent LogWithdrawEther(address accountAddress, uint amount);\r\n\r\n\tevent LogDepositToken(string symbolName, address accountAddress, uint amount, uint timestamp);\r\n\tevent LogWithdrawToken(string symbolName, address accountAddress, uint amount, uint timestamp);\r\n\tevent LogAddToken(uint tokenIndex, string symbolName, address EC20TokenAddress, uint timestamp);\r\n\r\n\tevent LogBuyToken(string symbolName, uint priceInWei, uint amount, address buyer, uint timestamp);\r\n\tevent LogSellToken(string symbolName, uint priceInWei, uint amount, address buyer, uint timestamp);\r\n\r\n\tevent LogCreateBuyOrder(string symbolName, uint priceInWei, uint amount, address buyer, uint timestamp);\r\n\tevent LogCreateSellOrder(string symbolName, uint priceInWei, uint amount, address seller, uint timestamp);\r\n\r\n\tevent LogFulfilBuyOrder(string symbolName, uint orderIndex, uint priceInWei, uint amount, uint timestamp);\r\n\tevent LogFulfilSellOrder(string symbolName, uint orderIndex, uint priceInWei, uint amount, uint timestamp);\r\n\r\n\tevent LogCancelBuyOrder(string symbolName, uint orderIndex, address buyer, uint timestamp);\r\n\tevent LogCancelSellOrder(string symbolName, uint orderIndex, address seller, uint timestamp);\r\n\r\n\t/////////////////////\r\n\t/* FUNCTIONALITIES */\r\n\t/////////////////////\r\n\r\n\t// Address's Ether account management\r\n\r\n  function depositEther() public payable returns (uint totalEtherBalanceInWei) {\r\n\t\trequire(getEtherBalanceInWei() + msg.value >= getEtherBalanceInWei());\r\n\r\n\t\tetherBalanceForAddress[msg.sender] += msg.value;\r\n\r\n\t\temit LogDepositEther(msg.sender, msg.value);\r\n\r\n\t\treturn getEtherBalanceInWei();\r\n  }\r\n\r\n\r\n  function withdrawEther(uint amountInWei) public returns (uint totalEtherBalanceInWei) {\r\n\t\trequire(amountInWei <= getEtherBalanceInWei());\r\n\r\n\t\tetherBalanceForAddress[msg.sender] -= amountInWei;\r\n\r\n\t\tmsg.sender.transfer(amountInWei);\r\n\r\n\t\temit LogWithdrawEther(msg.sender, amountInWei);\r\n\r\n\t\treturn getEtherBalanceInWei();\r\n  }\r\n\r\n\r\n  function getEtherBalanceInWei() public view returns (uint) {\r\n\t\treturn etherBalanceForAddress[msg.sender];\r\n  }\r\n\r\n\r\n\t// Owner's AddToken ability\r\n\r\n\tfunction addToken(string memory symbolName, address EC20TokenAddress) public onlyowner {\r\n\t\trequire(!hasToken(symbolName));\r\n\t\trequire(tokenIndex + 1 >= tokenIndex);\r\n\r\n\t\ttokenIndex++;\r\n\r\n\t\ttokens[tokenIndex].symbolName = symbolName;\r\n\t\ttokens[tokenIndex].contractAddress = EC20TokenAddress;\r\n\t\t\r\n\t\temit LogAddToken(tokenIndex, symbolName, EC20TokenAddress, block.timestamp);\r\n  }\r\n\r\n\r\n\t// Address's Tokens account management\r\n\r\n  function depositToken(string memory symbolName, uint amount) public returns (uint tokenBalance) {\r\n\t\trequire(hasToken(symbolName));\r\n\t\trequire(getBalanceForToken(symbolName) + amount >= getBalanceForToken(symbolName));\r\n\r\n\t\tuint8 _tokenIndex = getTokenIndex(symbolName);\t\r\n\r\n\t\tERC20Interface token = ERC20Interface(tokens[_tokenIndex].contractAddress);\r\n\t\trequire(token.transferFrom(msg.sender, address(this), amount) == true);\r\n\r\n\t\ttokenBalanceForAddress[msg.sender][_tokenIndex] += amount;\r\n\r\n\t\temit LogDepositToken(symbolName, msg.sender, amount, block.timestamp);\r\n\r\n\t\treturn getBalanceForToken(symbolName);\r\n  }\r\n\r\n\r\n  function withdrawToken(string memory symbolName, uint amount) public returns (uint tokenBalance) {\t\r\n\t\trequire(hasToken(symbolName));\r\n\t\trequire(amount <= getBalanceForToken(symbolName));\r\n\r\n\t\tuint8 _tokenIndex = getTokenIndex(symbolName);\r\n\t\t\r\n\t\tERC20Interface token = ERC20Interface(tokens[_tokenIndex].contractAddress);\r\n\r\n\t\ttokenBalanceForAddress[msg.sender][_tokenIndex] -= amount;\r\n\r\n\t\trequire(token.transfer(msg.sender, amount) == true);\r\n\r\n\t\temit LogWithdrawToken(symbolName, msg.sender, amount, block.timestamp);\r\n\r\n\t\treturn getBalanceForToken(symbolName);\r\n  }\r\n\t\r\n\r\n  function getBalanceForToken(string memory symbolName) public view returns (uint) {\r\n\t\treturn tokenBalanceForAddress[msg.sender][getTokenIndex(symbolName)];\r\n  }\r\n\r\n\r\n\tfunction getTokenAddress(string memory symbolName) public view returns (address) {\r\n\t\trequire(hasToken(symbolName));\r\n\r\n\t\tuint8 _tokenIndex = getTokenIndex(symbolName);\t\r\n\r\n\t\treturn tokens[_tokenIndex].contractAddress;\r\n\t}\r\n\r\n\r\n\tfunction hasToken(string memory symbolName) public view returns (bool) {\r\n\t\treturn getTokenIndex(symbolName) > 0;\r\n  }\r\n\r\n\t\r\n\tfunction getAllTokens() public view returns (string[] memory, address[] memory) {\r\n\t\tstring[] memory symbolNames = new string[](tokenIndex-1);\r\n\t\taddress[] memory addresses = new address[](tokenIndex-1);\r\n\r\n\t\tfor (uint8 i = 2; i <= tokenIndex; i++) {\r\n\t\t\tsymbolNames[i-2] = tokens[i].symbolName;\r\n\t\t\taddresses[i-2] = tokens[i].contractAddress;\r\n\t\t}\r\n\r\n\t\treturn (symbolNames, addresses);\r\n\t}\r\n\r\n\r\n\tfunction getTokenIndex(string memory symbolName) public view returns (uint8) {\r\n\t\tfor (uint8 i = 1; i <= tokenIndex; i++) {\r\n\t\t\tif (keccak256(bytes(symbolName)) == keccak256(bytes(tokens[i].symbolName))) {\r\n\t\t\t\treturn i;\r\n\t\t\t}\r\n\t\t}\r\n\t\treturn 0;\r\n\t}\r\n\r\n\r\n\t// Get order books\r\n\r\n\tfunction getBuyOrderBook(string memory symbolName) public view returns (uint[] memory, uint[] memory, uint[] memory) {\r\n\t\trequire(hasToken(symbolName));\r\n\r\n\t\tuint8 _tokenIndex = getTokenIndex(symbolName);\r\n\t\t\r\n\t\tuint[] memory indexes = new uint[](tokens[_tokenIndex].buyOrderBook.ordersCount);\r\n\t\tuint[] memory prices = new uint[](tokens[_tokenIndex].buyOrderBook.ordersCount);\r\n\t\tuint[] memory amounts = new uint[](tokens[_tokenIndex].buyOrderBook.ordersCount);\r\n\r\n\t\tfor (uint i = 1; i <= tokens[_tokenIndex].buyOrderBook.ordersCount; i++) {\t\t\t\t\r\n\t\t\tOrder memory _order = tokens[_tokenIndex].buyOrderBook.orders[tokens[_tokenIndex].buyOrderBook.ordersQueue[i-1]];\r\n\t\t\tindexes[i-1] = tokens[_tokenIndex].buyOrderBook.ordersQueue[i-1];\r\n\t\t\tprices[i-1] = _order.price;\r\n\t\t\tamounts[i-1] = _order.amount;\r\n\t\t}\r\n\r\n\t\treturn (indexes, prices, amounts);\r\n\t}\r\n\r\n\t\r\n\tfunction getAccountBuyOrders(string memory symbolName) public view returns (uint[] memory, uint[] memory, uint[] memory) {\r\n\t\trequire(hasToken(symbolName));\r\n\r\n\t\tuint8 _tokenIndex = getTokenIndex(symbolName);\r\n\r\n\t\t(uint[] memory indexes, uint[] memory prices, uint[] memory amounts) = getBuyOrderBook(symbolName);\r\n\t\tuint _accountOrdersCount = 0;\r\n\r\n\t\tuint[] memory _tempIndexes = new uint[](tokens[_tokenIndex].buyOrderBook.ordersCount);\r\n\r\n\t\tfor (uint i = 0; i < tokens[_tokenIndex].buyOrderBook.ordersCount; i++) {\r\n\t\t\tuint _orderIndex = indexes[i];\r\n\t\t\tif (tokens[_tokenIndex].buyOrderBook.orders[_orderIndex].who == msg.sender) {\r\n\t\t\t\t_tempIndexes[_accountOrdersCount] = _orderIndex;\r\n\t\t\t\t_accountOrdersCount++;\r\n\t\t\t}\r\n\t\t}\r\n\r\n\t\tuint[] memory _accountIndexes = new uint[](_accountOrdersCount);\r\n\t\tuint[] memory _accountPrices = new uint[](_accountOrdersCount);\r\n\t\tuint[] memory _accountAmounts = new uint[](_accountOrdersCount);\r\n\r\n\t\tfor (uint j = 0; j < _accountOrdersCount; j++) {\r\n\t\t\t_accountIndexes[j] = _tempIndexes[j];\r\n\t\t\t_accountPrices[j] = tokens[_tokenIndex].buyOrderBook.orders[_tempIndexes[j]].price;\r\n\t\t\t_accountAmounts[j] = tokens[_tokenIndex].buyOrderBook.orders[_tempIndexes[j]].amount;\r\n\t\t}\r\n\r\n\t\treturn (_accountIndexes, _accountPrices, _accountAmounts);\r\n\t}\r\n\r\n\r\n\tfunction getSellOrderBook(string memory symbolName) public view returns (uint[] memory, uint[] memory, uint[] memory) {\r\n\t\trequire(hasToken(symbolName));\r\n\r\n\t\tuint8 _tokenIndex = getTokenIndex(symbolName);\r\n\t\t\r\n\t\tuint[] memory indexes = new uint[](tokens[_tokenIndex].sellOrderBook.ordersCount);\r\n\t\tuint[] memory prices = new uint[](tokens[_tokenIndex].sellOrderBook.ordersCount);\r\n\t\tuint[] memory amounts = new uint[](tokens[_tokenIndex].sellOrderBook.ordersCount);\r\n\r\n\t\tfor (uint i = 1; i <= tokens[_tokenIndex].sellOrderBook.ordersCount; i++) {\t\t\t\t\r\n\t\t\tOrder memory _order = tokens[_tokenIndex].sellOrderBook.orders[tokens[_tokenIndex].sellOrderBook.ordersQueue[i-1]];\r\n\t\t\tindexes[i-1] = tokens[_tokenIndex].sellOrderBook.ordersQueue[i-1];\r\n\t\t\tprices[i-1] = _order.price;\r\n\t\t\tamounts[i-1] = _order.amount;\r\n\t\t}\r\n\t\t\r\n\t\treturn (indexes, prices, amounts);\r\n  }\r\n\r\n\r\n\tfunction getAccountSellOrders(string memory symbolName) public view returns (uint[] memory, uint[] memory, uint[] memory) {\r\n\t\trequire(hasToken(symbolName));\r\n\r\n\t\tuint8 _tokenIndex = getTokenIndex(symbolName);\r\n\r\n\t\t(uint[] memory indexes, uint[] memory prices, uint[] memory amounts) = getSellOrderBook(symbolName);\r\n\t\tuint _accountOrdersCount = 0;\r\n\r\n\t\tuint[] memory _tempIndexes = new uint[](tokens[_tokenIndex].sellOrderBook.ordersCount);\r\n\r\n\t\tfor (uint i = 0; i < tokens[_tokenIndex].sellOrderBook.ordersCount; i++) {\r\n\t\t\tuint _orderIndex = indexes[i];\r\n\t\t\tif (tokens[_tokenIndex].sellOrderBook.orders[_orderIndex].who == msg.sender) {\r\n\t\t\t\t_tempIndexes[_accountOrdersCount] = _orderIndex;\r\n\t\t\t\t_accountOrdersCount++;\r\n\t\t\t}\r\n\t\t}\r\n\r\n\t\tuint[] memory _accountIndexes = new uint[](_accountOrdersCount);\r\n\t\tuint[] memory _accountPrices = new uint[](_accountOrdersCount);\r\n\t\tuint[] memory _accountAmounts = new uint[](_accountOrdersCount);\r\n\r\n\t\tfor (uint j = 0; j < _accountOrdersCount; j++) {\r\n\t\t\t_accountIndexes[j] = _tempIndexes[j];\r\n\t\t\t_accountPrices[j] = tokens[_tokenIndex].sellOrderBook.orders[_tempIndexes[j]].price;\r\n\t\t\t_accountAmounts[j] = tokens[_tokenIndex].sellOrderBook.orders[_tempIndexes[j]].amount;\r\n\t\t}\r\n\r\n\t\treturn (_accountIndexes, _accountPrices, _accountAmounts);\r\n\t}\r\n\r\n\r\n\t// Create orders (buy / sell)\r\n\r\n\tfunction createBuyOrder(string memory symbolName, uint priceInWei, uint amount, address buyer) private {\r\n\t\trequire(hasToken(symbolName));\r\n\r\n\t\tuint8 _tokenIndex = getTokenIndex(symbolName);\r\n\r\n\t\tuint _buy_amount_balance = amount;\r\n\r\n\t\t// fulfil buyOrder by checking against which sell orders can be fulfil\r\n\t\tif (tokens[_tokenIndex].sellOrderBook.ordersCount > 0) {\r\n\t\t\t_buy_amount_balance = fulfilBuyOrder(symbolName, _buy_amount_balance, priceInWei);\r\n\t\t} \r\n\t\r\n\t\t// check if buyOrder is fully fulfiled\r\n\t\tif (_buy_amount_balance > 0) {\r\n\t\t\t// update buyOrderBook - ordersQueue\r\n\t\t\t(uint[] memory indexes, uint[] memory prices, uint[] memory amounts) = getBuyOrderBook(symbolName);\r\n\t\t\tuint _newOrderIndex = ++tokens[_tokenIndex].buyOrderBook.orderIndex;\r\n\t\t\tuint[] memory _newOrdersQueue = new uint[](_newOrderIndex);\r\n\t\t\t\r\n\t\t\tbool _isOrderAdded = false;\r\n\t\t\tif (tokens[_tokenIndex].buyOrderBook.ordersCount == 0) {\r\n\t\t\t\t_newOrdersQueue[0] = _newOrderIndex;\r\n\t\t\t\t_isOrderAdded = true;\r\n\t\t\t}\r\n\t\t\telse {\r\n\t\t\t\tuint _newOrdersQueueIndex = 0;\r\n\t\t\t\tfor (uint _counter = 0; _counter < tokens[_tokenIndex].buyOrderBook.ordersCount; _counter++) {\r\n\t\t\t\t\tif (!_isOrderAdded && priceInWei > prices[_counter]) {\r\n\t\t\t\t\t\t_newOrdersQueue[_newOrdersQueueIndex++] = _newOrderIndex;\r\n\t\t\t\t\t\t_isOrderAdded = true;\r\n\t\t\t\t\t}\r\n\t\t\t\t\t_newOrdersQueue[_newOrdersQueueIndex++] = tokens[_tokenIndex].buyOrderBook.ordersQueue[_counter];\r\n\t\t\t\t}\r\n\t\t\t\t// for the case of the price being lower than the lowest price of the orderbook\r\n\t\t\t\tif (!_isOrderAdded) {\r\n\t\t\t\t\t\t_newOrdersQueue[_newOrdersQueueIndex] = _newOrderIndex;\r\n\t\t\t\t}\r\n\t\t\t}\r\n\r\n\t\t\t// replace existing orders queue is it's not empty\r\n\t\t\ttokens[_tokenIndex].buyOrderBook.ordersQueue = _newOrdersQueue;\r\n\t\t\t\r\n\t\t\t// Add new order to OrderBook\r\n\t\t\ttokens[_tokenIndex].buyOrderBook.ordersCount++;\r\n\t\t\ttokens[_tokenIndex].buyOrderBook.orders[_newOrderIndex] = \r\n\t\t\t\tOrder({ price: priceInWei, amount: _buy_amount_balance, who: msg.sender });\r\n\t\t\t\r\n\t\t\t// fire event\r\n\t\t\temit LogCreateBuyOrder(symbolName, priceInWei, _buy_amount_balance, buyer, block.timestamp);\r\n\t\t}\r\n\t}\r\n\r\n\r\n\tfunction fulfilBuyOrder(string memory symbolName, uint _buy_amount_balance, uint priceInWei) private returns (uint) {\r\n\t\tuint8 _tokenIndex = getTokenIndex(symbolName);\r\n\t\tuint _currSellOrdersCount = tokens[_tokenIndex].sellOrderBook.ordersCount;\r\n\r\n\t\tuint _countSellOrderFulfiled = 0;\r\n\r\n\t\t// update sellOrderBook - orders\r\n\t\tfor (uint i = 0; i < _currSellOrdersCount; i++) {\r\n\t\t\tif (_buy_amount_balance == 0) break;\r\n\r\n\t\t\tuint _orderIndex = tokens[_tokenIndex].sellOrderBook.ordersQueue[i];\r\n\t\t\tuint _orderPrice = tokens[_tokenIndex].sellOrderBook.orders[_orderIndex].price;\r\n\t\t\tuint _orderAmount = tokens[_tokenIndex].sellOrderBook.orders[_orderIndex].amount;\r\n\t\t\taddress _orderOwner = tokens[_tokenIndex].sellOrderBook.orders[_orderIndex].who;\r\n\r\n\t\t\tif (priceInWei < _orderPrice) break;\r\n\r\n\t\t\tif (_buy_amount_balance >= _orderAmount) {\r\n\t\t\t\t_buy_amount_balance -= _orderAmount;\r\n\t\t\t\t\r\n\t\t\t\ttokens[_tokenIndex].sellOrderBook.orders[_orderIndex].amount = 0;\r\n\t\t\t\t_countSellOrderFulfiled++;\r\n\t\t\t\temit LogFulfilSellOrder(symbolName, _orderIndex, priceInWei, _orderAmount, block.timestamp);\r\n\r\n\t\t\t\tetherBalanceForAddress[_orderOwner] += priceInWei * _orderAmount;\r\n\t\t\t\ttokenBalanceForAddress[msg.sender][_tokenIndex] += _orderAmount;\r\n\t\t\t}\r\n\t\t\telse {\r\n\t\t\t\ttokens[_tokenIndex].sellOrderBook.orders[_orderIndex].amount -= _buy_amount_balance;\r\n\t\t\t\temit LogFulfilSellOrder(symbolName, _orderIndex, priceInWei, _buy_amount_balance, block.timestamp);\r\n\r\n\t\t\t\tetherBalanceForAddress[_orderOwner] += priceInWei * _buy_amount_balance;\r\n\t\t\t\ttokenBalanceForAddress[msg.sender][_tokenIndex] += _buy_amount_balance;\r\n\r\n\t\t\t\t_buy_amount_balance = 0;\r\n\t\t\t}\r\n\t\t}\r\n\r\n\t\t// update sellOrderBook - ordersBook and ordersCount\r\n\t\tuint _newSellOrdersCount = _currSellOrdersCount - _countSellOrderFulfiled;\r\n\r\n\t\tuint[] memory _newSellOrdersQueue = new uint[](_newSellOrdersCount);\r\n\t\tfor (uint i = 0; i < _newSellOrdersCount; i++) {\r\n\t\t\t_newSellOrdersQueue[i] = tokens[_tokenIndex].sellOrderBook.ordersQueue[i + _countSellOrderFulfiled];\r\n\t\t}\r\n\r\n\t\ttokens[_tokenIndex].sellOrderBook.ordersCount = _newSellOrdersCount;\r\n\t\ttokens[_tokenIndex].sellOrderBook.ordersQueue = _newSellOrdersQueue;\r\n\r\n\t\treturn _buy_amount_balance;\r\n\t}\r\n\r\n\r\n\tfunction createSellOrder(string memory symbolName, uint priceInWei, uint amount, address seller) private {\r\n\t\trequire(hasToken(symbolName));\r\n\r\n\t\tuint8 _tokenIndex = getTokenIndex(symbolName);\r\n\r\n\t\tuint _sell_amount_balance = amount;\r\n\r\n\t\t// fulfil sellOrder by checking against which buy orders can be fulfil\r\n\t\tif (tokens[_tokenIndex].buyOrderBook.ordersCount > 0) {\r\n\t\t\t_sell_amount_balance = fulfilSellOrder(symbolName, _sell_amount_balance, priceInWei);\r\n\t\t} \r\n\r\n\t\t// check if buyOrder is fully fulfiled\r\n\t\tif (_sell_amount_balance > 0) {\r\n\t\t\t// Update ordersQueue of OrderBook\r\n\t\t\t(uint[] memory indexes, uint[] memory prices, uint[] memory amounts) = getSellOrderBook(symbolName);\r\n\t\t\tuint _newOrderIndex = ++tokens[_tokenIndex].sellOrderBook.orderIndex;\r\n\t\t\tuint[] memory _newOrdersQueue = new uint[](_newOrderIndex);\r\n\t\t\t\r\n\t\t\tbool _isOrderAdded = false;\r\n\t\t\tif (tokens[_tokenIndex].sellOrderBook.ordersCount == 0) {\r\n\t\t\t\t_newOrdersQueue[0] = _newOrderIndex;\r\n\t\t\t\t_isOrderAdded = true;\r\n\t\t\t}\r\n\t\t\telse {\r\n\t\t\t\tuint _newOrdersQueueIndex = 0;\r\n\t\t\t\tfor (uint _counter = 0; _counter < tokens[_tokenIndex].sellOrderBook.ordersCount; _counter++) {\r\n\t\t\t\t\tif (!_isOrderAdded && priceInWei < prices[_counter]) {\r\n\t\t\t\t\t\t_newOrdersQueue[_newOrdersQueueIndex++] = _newOrderIndex;\r\n\t\t\t\t\t\t_isOrderAdded = true;\r\n\t\t\t\t\t}\r\n\t\t\t\t\t_newOrdersQueue[_newOrdersQueueIndex++] = tokens[_tokenIndex].sellOrderBook.ordersQueue[_counter];\r\n\t\t\t\t}\r\n\t\t\t\t// for the case of the price being lower than the lowest price of the orderbook\r\n\t\t\t\tif (!_isOrderAdded) {\r\n\t\t\t\t\t\t_newOrdersQueue[_newOrdersQueueIndex] = _newOrderIndex;\r\n\t\t\t\t} \r\n\t\t\t}\r\n\r\n\t\t\t// replace existing orders queue is it's not empty\r\n\t\t\ttokens[_tokenIndex].sellOrderBook.ordersQueue = _newOrdersQueue;\r\n\t\t\t\r\n\t\t\t// Add new order to OrderBook\r\n\t\t\ttokens[_tokenIndex].sellOrderBook.ordersCount++;\r\n\t\t\ttokens[_tokenIndex].sellOrderBook.orders[_newOrderIndex] = \r\n\t\t\t\tOrder({ price: priceInWei, amount: amount, who: msg.sender });\r\n\t\t\t\r\n\t\t\t// fire event\r\n\t\t\temit LogCreateSellOrder(symbolName, priceInWei, amount, seller, block.timestamp);\r\n\t\t}\r\n\t}\r\n\r\n\r\n\tfunction fulfilSellOrder(string memory symbolName, uint _sell_amount_balance, uint priceInWei) private returns (uint) {\r\n\t\tuint8 _tokenIndex = getTokenIndex(symbolName);\r\n\t\tuint _currBuyOrdersCount = tokens[_tokenIndex].buyOrderBook.ordersCount;\r\n\r\n\t\tuint _countBuyOrderFulfiled = 0;\r\n\r\n\t\t// update buyOrderBook - orders\r\n\t\tfor (uint i = 0; i < _currBuyOrdersCount; i++) {\r\n\t\t\tif (_sell_amount_balance == 0) break;\r\n\r\n\t\t\tuint _orderIndex = tokens[_tokenIndex].buyOrderBook.ordersQueue[i];\r\n\t\t\tuint _orderPrice = tokens[_tokenIndex].buyOrderBook.orders[_orderIndex].price;\r\n\t\t\tuint _orderAmount = tokens[_tokenIndex].buyOrderBook.orders[_orderIndex].amount;\r\n\t\t\taddress _orderOwner = tokens[_tokenIndex].buyOrderBook.orders[_orderIndex].who;\r\n\r\n\t\t\tif (priceInWei > _orderPrice) break;\r\n\r\n\t\t\tif (_sell_amount_balance >= _orderAmount) {\r\n\t\t\t\t_sell_amount_balance -= _orderAmount;\r\n\t\t\t\t\r\n\t\t\t\ttokens[_tokenIndex].buyOrderBook.orders[_orderIndex].amount = 0;\r\n\t\t\t\t_countBuyOrderFulfiled++;\r\n\t\t\t\temit LogFulfilBuyOrder(symbolName, _orderIndex, priceInWei, _orderAmount, block.timestamp);\r\n\r\n\t\t\t\ttokenBalanceForAddress[_orderOwner][_tokenIndex] += _orderAmount;\r\n\t\t\t\tetherBalanceForAddress[msg.sender] += priceInWei * _orderAmount;\r\n\t\t\t}\r\n\t\t\telse {\r\n\t\t\t\ttokens[_tokenIndex].buyOrderBook.orders[_orderIndex].amount -= _sell_amount_balance;\r\n\t\t\t\temit LogFulfilBuyOrder(symbolName, _orderIndex, priceInWei, _sell_amount_balance, block.timestamp);\r\n\r\n\t\t\t\ttokenBalanceForAddress[_orderOwner][_tokenIndex] += _sell_amount_balance;\r\n\t\t\t\tetherBalanceForAddress[msg.sender] += priceInWei * _sell_amount_balance;\r\n\r\n\t\t\t\t_sell_amount_balance = 0;\r\n\t\t\t}\r\n\t\t}\r\n\r\n\t\t// update buyOrderBook - ordersBook and ordersCount\r\n\t\tuint _newBuyOrdersCount = _currBuyOrdersCount - _countBuyOrderFulfiled;\r\n\r\n\t\tuint[] memory _newBuyOrdersQueue = new uint[](_newBuyOrdersCount);\r\n\t\tfor (uint i = 0; i < _newBuyOrdersCount; i++) {\r\n\t\t\t_newBuyOrdersQueue[i] = tokens[_tokenIndex].buyOrderBook.ordersQueue[i + _countBuyOrderFulfiled];\r\n\t\t}\r\n\r\n\t\ttokens[_tokenIndex].buyOrderBook.ordersCount = _newBuyOrdersCount;\r\n\t\ttokens[_tokenIndex].buyOrderBook.ordersQueue = _newBuyOrdersQueue;\r\n\r\n\t\treturn _sell_amount_balance;\r\n\t}\r\n\r\n\r\n\t// Buy / Sell token\r\n\t\r\n\tfunction buyToken(string memory symbolName, uint priceInWei, uint amount) public {\r\n\t\trequire(hasToken(symbolName));\r\n\t\trequire(priceInWei > 0);\r\n\t\trequire(amount > 0);\r\n\t\t\r\n\t\tuint total_ether_needed = priceInWei * amount;\r\n\t\trequire(total_ether_needed <= getEtherBalanceInWei());\r\n\t\tetherBalanceForAddress[msg.sender] -= total_ether_needed;\r\n\r\n\t\tcreateBuyOrder(symbolName, priceInWei, amount, msg.sender);\r\n\t}\r\n\r\n\r\n\tfunction sellToken(string memory symbolName, uint priceInWei, uint amount) public {\r\n\t\trequire(hasToken(symbolName));\r\n\t\trequire(priceInWei > 0);\r\n\t\trequire(amount > 0);\r\n\r\n\t\tuint8 _tokenIndex = getTokenIndex(symbolName);\r\n\t\t\r\n\t\tuint total_token_available = tokenBalanceForAddress[msg.sender][_tokenIndex];\r\n\t\trequire(amount <= total_token_available);\r\n\t\ttokenBalanceForAddress[msg.sender][_tokenIndex] -= amount;\r\n\r\n\t\tcreateSellOrder(symbolName, priceInWei, amount, msg.sender);\r\n\t}\r\n\r\n\r\n  function cancelBuyOrder(string memory symbolName, uint orderIndex) public {\r\n\t\trequire(hasToken(symbolName));\r\n\r\n\t\tuint8 _tokenIndex = getTokenIndex(symbolName);\r\n\r\n\t\trequire(tokens[_tokenIndex].buyOrderBook.ordersCount > 0);\r\n\r\n\t\t// Check order is in OrderBook\r\n\t\t// Create new orderQueue\r\n\t\tbool _isOrderInBook = false;\r\n\t\tuint _newOrderQueueIndex = 0;\r\n\t\tuint[] memory _newOrdersQueue = new uint[](tokens[_tokenIndex].buyOrderBook.ordersCount - 1);\r\n\t\tuint _priceInWei;\r\n\t\tuint _amount;\r\n\t\t\r\n\t\tfor (uint _orderQueueIndex = 0; _orderQueueIndex < tokens[_tokenIndex].buyOrderBook.ordersCount; _orderQueueIndex++) {\r\n\t\t\tif (orderIndex == tokens[_tokenIndex].buyOrderBook.ordersQueue[_orderQueueIndex]) {\r\n\t\t\t\t_isOrderInBook = true;\r\n\t\t\t\t_priceInWei = tokens[_tokenIndex].buyOrderBook.orders[orderIndex].price;\r\n\t\t\t\t_amount = tokens[_tokenIndex].buyOrderBook.orders[orderIndex].amount;\r\n\t\t\t} else {\r\n\t\t\t\t_newOrdersQueue[_newOrderQueueIndex] = tokens[_tokenIndex].buyOrderBook.ordersQueue[_orderQueueIndex];\r\n\t\t\t\t_newOrderQueueIndex++;\r\n\t\t\t}\r\n\t\t}\r\n\t\trequire(_isOrderInBook);\t\t\r\n\r\n\t\t// Update OrderBook and OrderQueue\r\n\t\ttokens[_tokenIndex].buyOrderBook.ordersCount--;\r\n\t\ttokens[_tokenIndex].buyOrderBook.ordersQueue = _newOrdersQueue;\r\n\r\n\t\t// refund ether balance back to user's account\r\n\t\tetherBalanceForAddress[msg.sender] += _priceInWei * _amount;\r\n\r\n\t\temit LogCancelBuyOrder(symbolName, orderIndex, msg.sender, block.timestamp);\r\n  }\r\n\r\n\tfunction cancelSellOrder(string memory symbolName, uint orderIndex) public {\r\n\t\trequire(hasToken(symbolName));\r\n\r\n\t\tuint8 _tokenIndex = getTokenIndex(symbolName);\r\n\r\n\t\trequire(tokens[_tokenIndex].sellOrderBook.ordersCount > 0);\r\n\r\n\t\t// Check order is in OrderBook\r\n\t\t// Create new orderQueue\r\n\t\tbool _isOrderInBook = false;\r\n\t\tuint _newOrderQueueIndex = 0;\r\n\t\tuint[] memory _newOrdersQueue = new uint[](tokens[_tokenIndex].sellOrderBook.ordersCount - 1);\r\n\t\tuint _amount;\r\n\t\t\r\n\t\tfor (uint _orderQueueIndex = 0; _orderQueueIndex < tokens[_tokenIndex].sellOrderBook.ordersCount; _orderQueueIndex++) {\r\n\t\t\tif (orderIndex == tokens[_tokenIndex].sellOrderBook.ordersQueue[_orderQueueIndex]) {\r\n\t\t\t\t_isOrderInBook = true;\r\n\t\t\t\t_amount = tokens[_tokenIndex].sellOrderBook.orders[orderIndex].amount;\r\n\t\t\t} else {\r\n\t\t\t\t_newOrdersQueue[_newOrderQueueIndex] = tokens[_tokenIndex].sellOrderBook.ordersQueue[_orderQueueIndex];\r\n\t\t\t\t_newOrderQueueIndex++;\r\n\t\t\t}\r\n\t\t}\r\n\t\trequire(_isOrderInBook);\t\t\r\n\r\n\t\t// Update OrderBook and OrderQueue\r\n\t\ttokens[_tokenIndex].sellOrderBook.ordersCount--;\r\n\t\ttokens[_tokenIndex].sellOrderBook.ordersQueue = _newOrdersQueue;\r\n\r\n\t\t// refund token balance back to user's account\r\n\t\ttokenBalanceForAddress[msg.sender][_tokenIndex] += _amount;\r\n\r\n\t\temit LogCancelSellOrder(symbolName, orderIndex, msg.sender, block.timestamp);\r\n  }\r\n\r\n} ",
  "sourcePath": "C:/Users/adria/Desktop/cx4153-blockchain-technology/contracts/Exchange.sol",
  "compiler": {
    "name": "solc",
    "version": "0.5.16+commit.9c3226ce.Emscripten.clang"
  },
  "schemaVersion": "3.2.5",
  "updatedAt": "2020-11-03T12:41:33.296Z",
  "networkType": "ethereum",
  "devdoc": {
    "methods": {}
  },
  "userdoc": {
    "methods": {
      "depositEther()": {
        "notice": "//////////////////"
      }
    }
  }
}